:020000040800F2
:10000000D006002059140008E5040008E7040008A1
:10001000EB040008EF040008F304000800000000EF
:10002000000000000000000000000000F7040008CD
:10003000F904000800000000FB040008FD040008AB
:1000400049090008731400087314000873140008A9
:100050007314000873140008731400087314000864
:100060007314000873140008731400087314000854
:100070007314000873140008731400087314000844
:100080007314000873140008731400087314000834
:100090007314000873140008731400088F08000814
:1000A0007314000873140008731400087314000814
:1000B000330A000873140008BB0C0008731400080E
:1000C00073140008731400087314000873140008F4
:1000D00073140008731400087314000873140008E4
:1000E00073140008731400087314000800F002F879
:1000F00000F03AF80AA090E8000C82448344AAF188
:100100000107DA4501D100F02FF8AFF2090EBAE885
:100110000F0013F0010F18BFFB1A43F0010318473B
:10012000E840000008410000103A24BF78C878C1B8
:10013000FAD8520724BF30C830C144BF04680C60ED
:10014000704700000023002400250026103A28BF35
:1001500078C1FBD8520728BF30C148BF0B60704739
:100160001FB51FBD10B510BD03F0B3F91146FFF761
:10017000F7FF00F05BF903F0D1F903B4FFF7F2FFEA
:1001800003BC03F0D9F9000010B5C9480078022873
:1001900003D1C848007800F0EAFAC548007803287F
:1001A00037D10020C2490870C3490870022000F00E
:1001B000BBFEC0480078012806D14FF4F070BF495B
:1001C00008609620BE490880BA480078022806D107
:1001D0004FF4F070B94908607820B9490880B548F3
:1001E0000078032806D14FF4F570B44908609620D2
:1001F000B3490880AF480078042806D14FF4F57061
:10020000AE4908607820AE490880AA48007800F01E
:10021000AEFAA7480078012808D1A748007801283D
:1002200004D100F081FE0220A349087010BD70B512
:10023000002000F099FD0446A248008884427DDD3C
:100240000A2001F0CDF8002000F08EFD04469D4804
:1002500000888442F3DD9C48007808BB00F040FA37
:1002600001209A49086040F2DC5001F0B9F8002002
:100270009749C1F89C018F48007800F078FA002077
:1002800000F072FD044606E0002000F06DFD04461B
:100290000A2001F0A5F88B4800888442F4DC7BE05A
:1002A000002000F061FD04460BE0002000F05CFD42
:1002B00004460A2001F094F8681C85B2FA2D00DB90
:1002C00003E0804800888442EFDC00BFFA2D43DA67
:1002D00078480078042803D101207649087004E0AA
:1002E00074480078401C734908707248007800F028
:1002F0003EFA6F48007800284ED16E4800780128F9
:1003000006D14FF4F0706D49086096206C49088062
:1003100068480078022806D14FF4F07067490860F9
:1003200078206749088063480078032808D14FF493
:10033000F570624908609620614900E02FE008806E
:100340005C480078042827D14FF4F5705B490860B9
:1003500078205B4908801FE000205C49086001208C
:100360005C49C1F8B0015C490860091D0860091DBD
:1003700008605749C1F89C01002000F0F5FC0446D4
:1003800006E0002000F0F0FC04460A2001F028F806
:100390004C4800888442F4DC01204B49087070BD51
:1003A00010B586B00446012144F2050001F0D4FEE8
:1003B0004FF40070ADF8140003208DF816001820DB
:1003C0008DF8170005A9454801F0EAFB4FF480605D
:1003D000ADF8140004208DF8170005A93F4801F07E
:1003E000DFFB25208DF8000003208DF801008DF83B
:1003F000020001208DF80300684601F052F80194D4
:100400000020ADF80800ADF80A00ADF80C00ADF81A
:1004100010000C20ADF80E0001A9314802F051FE89
:1004200001212F4802F0D9FE06B010BD00F0D7F828
:10043000482000F0BBFF00202349087001201D491F
:10044000087000201A4908701B49087000F046FC2B
:1004500001E0FFF7ECFE1C4800780028F9D000F01E
:100460004CFD00F0CFF900F097FD00F070FF00F0B8
:10047000E1FD41F61F41C82000F0B4FC4FF4E1302B
:10048000FFF78EFF0021084600F070FA00210846B1
:1004900000F09EFA0A2000F071FD06E0FFF7C7FEAB
:1004A000FFF772FE0A2000F09BFFF7E7704700009D
:1004B000040000200200002012000020080000209C
:1004C00010000020000000200300002088012142CD
:1004D0000000224200802142B481214200080140F4
:1004E00000380140704700BFFEE700BFFEE700BFD5
:1004F000FEE700BFFEE77047704770477047000097
:100500000CB50020019000906C48006840F48030E9
:100510006A49086000BF6948006800F40030009034
:100520000198401C0190009818B90198B0F5A06F8F
:10053000F1D16248006800F4003010B10120009051
:1005400001E0002000900098012843D15C48006839
:1005500040F010005A4908600846006820F0030087
:1005600008600846006840F0020008605348406890
:10057000524948600846406848600846406840F470
:10058000806048600846406820F47C104860084657
:10059000406840F4E81048600846006840F0807009
:1005A000086000BF4548006800F000700028F9D0DE
:1005B0004248406820F003004049486008464068CF
:1005C00040F00200486000BF3C48406800F00C006A
:1005D0000828F9D10CBD10B5FFF792FF10BD10B57A
:1005E0003648006840F00100344908600846406819
:1005F000344908403149486008460068324908409B
:100600002E4908600846006820F4802008600846EB
:10061000406820F4FE0048604FF41F008860FFF738
:10062000DAFF4FF000602949086010BD10B50021C5
:1006300000200022214B5B6803F00C0121B104294A
:1006400006D0082928D107E0214B224C236027E05F
:100650001F4B204C236023E0184B5B6803F47010A1
:10066000164B5B6803F48032022303EB904022B9FF
:10067000194B4343174C23600DE0104B5B6803F4A8
:10068000003323B1144B4343124C236003E0104B5F
:100690004343104C236003E00D4B0E4C236000BF1E
:1006A00000BF064B5B68C3F303130C4CE15C094BC2
:1006B0001B68CB40074C236010BD000000100240B7
:1006C000002002400000FFF8FFFFF6FE08ED00E00A
:1006D00000127A001400002000093D0018000020DC
:1006E00008B50121082001F037FD01213F4801F044
:1006F00028FB4FF47040ADF8000010208DF8030087
:1007000003208DF802006946394801F049FA4FF498
:100710007041374801F0F1FA0121102001F01CFD71
:100720008020ADF8000010208DF8030003208DF824
:10073000020069462F4801F033FA80212D4801F06C
:10074000DCFA0121042001F007FD0420ADF80000CF
:1007500010208DF8030003208DF80200694626481A
:1007600001F01EFA0421244801F0C7FA08BD01284F
:100770000CD10021214A11600121214AC2F8B41193
:100780001E4A083211601E4AC2F8BC1102280DD15F
:1007900001211A4A11600021194AC2F8B41101213D
:1007A000164A08321160164AC2F8BC1103280DD14E
:1007B0000121124A1160124AC2F8B41100210F4AF5
:1007C0000832116001210E4AC2F8BC1104280CD174
:1007D00001210A4A11600A4AC2F8B411074A0832D4
:1007E00011600021064AC2F8BC11704700023000B7
:1007F000000C01400010014000080140B08121427E
:10080000008021421FB501212B4801F09AFA0121F5
:10081000112001F0A1FC0121102001F09DFC4020DD
:10082000ADF80C0048208DF80F0003A9234801F013
:10083000B7F90621022001F0C9FA402001900020FA
:100840008DF808000C208DF8090001208DF80A00B1
:1008500001A801F0C5F817208DF8000002208DF8DE
:10086000010001208DF802008DF80300684600F0B9
:1008700018FE1FBD002007E0002101E04A1CD1B294
:100880001429FBDB421CD0B2C828F5DB704710B539
:10089000FFF7F0FF402001F009F940B10848007867
:1008A000012804DC06480078401C054908704020F7
:1008B00001F00DF910BD00000002300000100140F1
:1008C0000400002070B505460C4645F2555001F075
:1008D000B5FA284601F0B5FA204601F0B5FA01F064
:1008E000B6FA01F0B9FA70BD10B501F0B0FA10BD5A
:1008F00008B500208DF8000002208DF801000320CB
:100900008DF80200684600F0CCFD08BD70B50646C3
:100910000C4615460121C80201F02BFC284602F0C6
:100920009CFD204602F0A2FD304602F0BAFD02F026
:10093000C3FDFFF7DDFF02F0AAFD70BD10B5044650
:10094000204602F0AEFD10BD10B57F2002F0A3FDE1
:1009500002F0B2FD0448006808B9012000E0002060
:100960000149086010BD0000B08121427FB50446F6
:100970000D460121084601F0FCFB41F28730ADF83D
:10098000080041F61F40ADF804000020ADF80A0051
:10099000ADF8060001A94FF0804001F015FD0122DD
:1009A0004121880702F087F81C208DF80000002004
:1009B0008DF8010003208DF8020001208DF803005E
:1009C000684600F06EFD0121880702F059F87FBDEE
:1009D0007FB504460D460121042001F0CAFB4FF407
:1009E0007A70ADF8080041F61F40ADF80400002011
:1009F000ADF80A00ADF8060001A9E74801F0E4FCF3
:100A000001224121E44802F056F81E208DF8000032
:100A100000208DF8010003208DF8020001208DF8E0
:100A20000300684600F03DFD0121DB4802F028F894
:100A30007FBD10B50121880702F0EBFA00286FD0C6
:100A4000D6480078012871D1D5480078401CD44997
:100A5000087008460078022830D100200870002174
:100A6000D04802F027FC00BFCE48008800F04000CC
:100A70000028F9D0CC480468E01704EB1060C0F3FC
:100A80000F21C84802F016FC00BFC648008800F0DD
:100A900040000028F9D0C4480468E01704EB106057
:100AA0000012A4EB002081B2BE4802F003FC00BF9C
:100AB000BC48008800F040000028F9D0BB4800780E
:100AC000012807D1BA48006808B9012000E00020D9
:100AD000B7490860B5480078022809D1B448001D1C
:100AE000006808B9012000E00020B149091D086034
:100AF000AE480078032809D1AD480830006808B92D
:100B0000012000E00020AA4908310860A7480078C9
:100B100004280BD1A6480C30006818B9012002E067
:100B200022E003E00020A2490C3108609B480078D5
:100B3000022815D19A480078401C99490870084647
:100B4000007802280CD1002008709A480088401EC6
:100B5000984908800846008810B903208F4908701A
:100B60000121880702F066FA10BD2DE9F04700F078
:100B70008BFB8D490860904800680968401A082876
:100B800009DD8E48007830B9C72000F0F7F9002061
:100B90008B49086076E08448006887490968401AF4
:100BA00003280EDA8048006883490968401A10F16A
:100BB000030F06DD142000F0E1F9002080490860F1
:100BC00060E0794800687C490968401A052806DD1C
:100BD000012000F0D3F900207949086052E07648FE
:100BE000006871490968401A7649087074480068BD
:100BF000097808447249086072490978724A127883
:100C0000881A03F093F9074670480168384603F0E4
:100C1000B9F905466A48006803F088F981466C48CE
:100C20000168484603F0AEF907466648007803F0CD
:100C300095F9814667480168484603F0A3F9804664
:100C4000394603F0F1F80646294603F0EDF804466C
:100C500003F04CF9604908705A4800785A49087006
:100C60005D480078C72802DDC7205B4908705A48F4
:100C70000078142802DA1420574908705648007882
:100C800000F07CF945480078012814D14A480068F2
:100C900045490968401A05280DDA47480068424965
:100CA0000968401A10F1050F05DD4448007810B9B5
:100CB000012042490870BDE8F08710B5012136488F
:100CC00002F0A7F948B135480078002801DDFFF7A8
:100CD0004CFF0121304802F0ADF910BD00B587B0DE
:100CE00001214FF4017001F037FA4FF4004001F098
:100CF00097F90120ADF8040000208DF8070001A944
:100D0000364800F04DFF364800F034FC00200290D9
:100D10008DF80C008DF80D004FF460200490002039
:100D2000059001208DF8180002A92D4800F049FC1B
:100D300001212B4800F071FC294800F090FC00BF15
:100D4000274800F091FC0028FAD1254800F096FCD5
:100D500000BF234800F097FC0028FAD10121204869
:100D600000F09BFC07B000BD10B50446072301222C
:100D700021461B4800F0BDFC0121194800F08DFC04
:100D800000BF0221164800F0F9FD0028F9D01448F0
:100D900000F016FD10BD0000000800400400002017
:100DA0003A000020003801400C0000200200002022
:100DB000B081214210000020080000201200002015
:100DC00034000020390000203800002030000020CE
:100DD0002C000020280000203B00002000080140DB
:100DE0000024014030B589B005460C460121C802F7
:100DF00001F0B2F90121052001F0AEF94FF4807045
:100E0000ADF8200018208DF8230003208DF8220073
:100E100008A95E4800F0C4FEADF81850ADF81440C3
:100E20000020ADF81A00ADF8160005A9584801F0E9
:100E3000CBFA7020ADF804000120ADF806000020C8
:100E4000ADF80A00ADF80C0001A9514801F0F9FA1B
:100E500008214F4801F044FF01214D4801F010FFE7
:100E600001214B4801F00CFE09B030BD00B589B03E
:100E70000121022001F07DF90121052001F06CF92A
:100E80008020ADF8200018208DF8230003208DF875
:100E9000220008A93D4800F083FEFA20ADF81800B2
:100EA0004720ADF814000020ADF81A00ADF8160088
:100EB00005A9384801F088FA7020ADF80400012037
:100EC000ADF806000020ADF80A00ADF80C0001A94D
:100ED000304801F0F8FA08212E4801F00AFF0121FC
:100EE0002C4801F0CDFE01212A4801F0C9FD7D21E9
:100EF000284802F05FF809B000BD08B501210420C0
:100F000001F02AF98020ADF8000010208DF80300D0
:100F100001208DF8020069461C4800F041FE802146
:100F20001A4800F0ECFE08BD10B50446012C08D1AB
:100F3000FFF79CFF962000F053FA0021154801F0BE
:100F40009FFD022C17D1FFF791FF962000F048FA81
:100F50000021104801F094FD4FF4C87000F040FAF1
:100F600001210C4801F08CFD962000F039FA002197
:100F7000084801F085FDFFF7C0FF10BD10B504461D
:100F80002146044802F016F810BD00000008014098
:100F9000002C01400004004008B50121102001F0A0
:100FA000DBF84FF44070ADF8000010208DF803001E
:100FB00001208DF802006946EF4800F0F1FD08BD00
:100FC00008B54FF40070ADF8000010208DF8030054
:100FD00001208DF802006946E74800F0E1FD08BDF8
:100FE00008B54FF40070ADF8000048208DF80300FC
:100FF0006946E14800F0D4FD08BD08B54FF48070A3
:10100000ADF8000010208DF8030001208DF80200DB
:101010006946D94800F0C4FD08BD08B54FF480709A
:10102000ADF8000048208DF803006946D24800F072
:10103000B7FD08BD10B5FFF7AFFF0120CF4908602D
:101040000020CF49C1F8A001002409E00120CB49CC
:10105000091F08600020CA49C1F8A001601CC4B281
:10106000092CF3DB10BD002001E0411CC8B2C828E8
:10107000FBDB704710B5FFF7A3FF0120BF490860F5
:10108000BF49C1F8A0010020BC490860FFF7EBFF91
:10109000FFF7E9FF0020BA49C1F8A001FFF7E3FF1D
:1010A000FFF7E1FF10BD00B50020B4490860B44966
:1010B000C1F8A0010120B149091F0860FFF7D3FF63
:1010C000FFF7D1FF0120AE49C1F8A401FFF7CBFF24
:1010D000FFF7C9FF00BD2DE9F04104460026274671
:1010E000002519E007F0800018B10120A34908602D
:1010F00002E00020A1490860FFF7B5FF01209F49E9
:10110000091F0860FFF7AFFF00209D49C1F8A0014B
:101110007806070E681CC5B2082DE3DBFFF760FFF9
:1011200001209649091F0860FFF79DFF9448D0F8F9
:101130002401C6B200209149091F0860FFF740FF53
:10114000012E02D10120BDE8F0810EB90020FAE79E
:1011500000BFF8E770B505460024FFF741FF002601
:1011600016E06006040E01208449091F0860FFF79D
:101170007AFF8348D0F82401012801D1601CC4B251
:1011800000207E49091F0860FFF76DFF701CC6B282
:10119000082EE6DBFFF714FF012D03D1012077496C
:1011A000086002E000207549086001207349091FAA
:1011B0000860FFF758FF00207149C1F8A001FFF750
:1011C00052FF204670BD70B505460C46FFF752FF32
:1011D0002846FFF780FF2046FFF77DFFFFF763FFFC
:1011E00070BD70B50125FFF745FF8020FFF773FF45
:1011F000F520FFF770FF0BE0FFF73CFF8120FFF7C2
:101200006AFF0546FFF72FFFFFF72DFFFFF72BFFC4
:10121000012DF1D00020FFF79DFF5A4908700120F1
:10122000FFF798FF58490870FFF73DFF55480078D1
:1012300056490880084600884FF6FF7101EA0020F1
:1012400052490880084600884F49097808444F49A8
:101250000880084600884FF6FC7108404B4908801A
:10126000098801EB4102C2EBC114E11704EB114103
:101270000914881F02F0C5FB454A03C2444903C94B
:1012800002F092FBC0B270BD2DE9F84F0120009032
:10129000FFF7F0FE8020FFF71EFFF320FFF71BFF94
:1012A0000BE0FFF7E7FE8120FFF715FF0090FFF747
:1012B000DAFEFFF7D8FEFFF7D6FE00980128F0D03F
:1012C0000020FFF747FF2F4908700120FFF742FF7A
:1012D0002D490870FFF7E7FE2A4800782B4908805F
:1012E000084600884FF6FF7101EA00202749088070
:1012F000084600882449097808442449088008469B
:1013000000884FF6FC710840204908800846008894
:1013100002F08EFB80461F4A1F4B02F09DFB0646E3
:1013200000221E4B02F0B8F904461D4A1D4B02F084
:101330000BF9824600221C4B02F08EFB144A03C2BA
:10134000134903C902F000FB00B2BDE8F88F10B5E5
:10135000FFF790FE8020FFF7BEFEFE20FFF7BBFEEA
:10136000FFF7A1FEFFF77FFEFFF77DFEFFF77BFE95
:10137000FFF779FE10BD000000100140A4012242D9
:10138000000022425600002057000020500000209C
:1013900040000020D7A3703D0AF765400000F040F0
:1013A000CDCCCCCCCC6C47C00000244010B504465A
:1013B0006FF0040000F0BFF8E11704EB5171C1F3C6
:1013C000C701234A11701046007800EB4001C1EBC1
:1013D000C0104FF6FF7101EAC0001E49088010BD21
:1013E00001461C4A12884A434FF0E0235A6100220A
:1013F0009A6101221A6100BF4FF0E022106900F0EB
:1014000001021AB100F48032002AF5D000224FF018
:10141000E0231A619A61704701460D4A12784A43E7
:101420004FF0E0235A6100229A6101221A6100BF45
:101430004FF0E022106900F001021AB100F480328E
:10144000002AF5D000224FF0E0231A619A6170471C
:10145000580000205A0000200948804709480047EA
:10146000FEE7FEE7FEE7FEE7FEE7FEE7FEE7FEE754
:10147000FEE7FEE704480549054A064B70470000B1
:10148000DF050008ED000008D0000020D006002095
:10149000D0020020D002002031490143314A1160BE
:1014A000704770B5002100230F22C47804B32D4C7F
:1014B000246804F4E064C4F5E064210AC1F1040383
:1014C000CA40447804FA03F18478144021430901A6
:1014D000254C0678A155047804F01F050124AC4082
:1014E00005786D11AD0005F1E025C5F8004109E072
:1014F000047804F01F050124AC401C4D06787611D9
:1015000045F8264070BD1A4A0A400243154B1B1F7E
:101510001A60704739B1134A121D12680243114B09
:101520001B1D1A6006E00F4A121D126882430D4B04
:101530001B1D1A607047042808D14FF0E02109698B
:1015400041F004014FF0E022116107E04FF0E0218B
:10155000096921F004014FF0E02211617047000099
:101560000000FA050CED00E000E400E080E100E09E
:1015700080FFFF1F10B50446FA48844208D10121BC
:10158000401500F003FE0021601500F0FFFD17E09C
:10159000F548844208D10121001500F0F7FD002133
:1015A000201500F0F3FD0BE0F048844208D1012142
:1015B000C80300F0EBFD00214FF4004000F0E6FD11
:1015C00010BD30B50246002000235068E84C204092
:1015D0000D790C6844EA0524204350609068E54C7E
:1015E0002040D1E902542C434D7944EA450420437C
:1015F0009060D06A20F470000C7C641EE4B2234337
:1016000040EA0350D06230BD002101600171417198
:101610008160C16001210174704721B1826842F08C
:101620000102826003E0826822F00102826070475A
:1016300021B1826842F48072826003E0826822F401
:1016400080728260704710B50023CBB21AB1446833
:101650001C43446002E044689C43446010BD8168C0
:1016600041F0080181607047014600208A6802F05D
:1016700008020AB1012000E000207047816841F0B3
:10168000040181607047014600208A6802F004026C
:101690000AB1012000E00020704721B1826842F4C5
:1016A000A002826003E0826822F4A0028260704798
:1016B000014600208A6802F480020AB1012000E09D
:1016C0000020704710B50A4600210023416821F42C
:1016D0006041531E41EA4331416010BD21B142686F
:1016E00042F40062426003E0426822F40062426019
:1016F0007047F0B504460D4600200021092D11DD8C
:10170000E068A5F10A0606EB4607072606FA07F188
:101710008843A5F10A0606EB460603FA06F10843DC
:10172000E0600CE0206905EB4507072606FA07F1A3
:10173000884305EB450603FA06F108432061072AB2
:101740000FDA606B561E06EB86071F2606FA07F1B6
:101750008843561E06EB860605FA06F108436063C9
:1017600022E00D2A0FDA206BD61F06EB86071F2614
:1017700006FA07F18843D61F06EB860605FA06F13E
:101780000843206310E0E06AA2F10D0606EB86072D
:101790001F2606FA07F18843A2F10D0606EB86061E
:1017A00005FA06F10843E062F0BD21B1826842F417
:1017B0008012826003E0826822F4801282607047A7
:1017C0000146C86C80B2704766484C30006870476C
:1017D00021B1426842F48062426003E0426822F430
:1017E00080624260704721B1426842F48052426098
:1017F00003E0426822F48052426070470A460021AA
:10180000816821F4E04111438160704721B1826811
:1018100042F40042826003E0826822F40042826067
:10182000704721B1826842F40212826003E082684C
:1018300022F4021282607047014600208A6802F496
:1018400000120AB1012000E000207047F0B5044604
:101850001546002000220026092911DDE068A1F1CB
:101860000A0707EB470C072707FA0CF29043A1F190
:101870000A0707EB470703FA07F21043E0600CE0A2
:10188000206901EB410C072707FA0CF2904301EBAA
:10189000410703FA07F210432061A06BC0F3015621
:1018A000EF1C06F1010CA7EB0C0707EB870C1F27B9
:1018B00007FA0CF29043EF1C06F1010CA7EB0C07A2
:1018C00007EB870701FA07F21043A063F0BD10B5DC
:1018D0000A4600210023816B21F44011531E41EA86
:1018E0000351816310BD08B5002300930090009B55
:1018F0000B440093009B1A6008BD08B50246002007
:101900000090009201F12800009B1844009000987C
:10191000006880B208BD0A4600214168164B194094
:101920001143416070474162826270470A4600215C
:10193000416821F01F0111434160704740B10949DE
:101940000831096841F40001064A0832116007E0D5
:1019500004490831096821F40001024A0832116083
:10196000704700000024014000280140003C014075
:10197000FFFEF0FFFDF7F1FFFFFD3FFF02460020F5
:1019800013680B400BB1012000E000207047CA43F0
:101990000260704770B502460020002300240B123D
:1019A0005568CEB205EA060415681D4015B10CB1A4
:1019B000012000E0002070BD00220A12D343036022
:1019C00070470000002044490860091D0860091D97
:1019D0000860091D086041483F491431086070479C
:1019E00000213D498279002A3AD00A4612680368EC
:1019F0009A430B461A600A1D126803689A430B1D2E
:101A00001A60027911440A6803681A430A60324A6C
:101A10000832126803689A432F4B08331A601A1D64
:101A2000126803689A432C4B0C331A604279102ACF
:101A30000ED11A1F126803681A43274B08331A6025
:101A40001A1D126803681A43234B0C331A600DE009
:101A50002149427911440A6803681A430A6005E083
:101A6000027911440A6803689A430A6070470021AA
:101A7000016001710C21417100218171704716498B
:101A8000103109680143144A103211607047014651
:101A90000020114A143212680A400AB1012000E005
:101AA000002070470C49143108607047014600203F
:101AB0000022094B1B6803EA0102074B14331B6821
:101AC0000B4013B10AB1012000E000207047024929
:101AD000143108607047000000040140FFFF0F0050
:101AE00010B50446CC48844208D10121042000F0FE
:101AF0004DFB0021042000F049FB46E0C74884422A
:101B000008D10121082000F041FB0021082000F04D
:101B10003DFB3AE0C248844208D10121102000F088
:101B200035FB0021102000F031FB2EE0BD4884423F
:101B300008D10121202000F029FB0021202000F005
:101B400025FB22E0B848844208D10121402000F062
:101B50001DFB0021402000F019FB16E0B348844231
:101B600008D10121802000F011FB0021802000F02D
:101B70000DFB0AE0AE48844207D10121801500F038
:101B800005FB0021A01500F001FB10BD10B50121DF
:101B9000084600F0FBFA0021012000F0F7FA10BD22
:101BA0002DE9F041024600250026002000230024F4
:101BB000002791F803C00CF00F0591F803C00CF05A
:101BC000100CBCF1000F03D091F802C04CEA0505DF
:101BD00091F800C0BCF1000F31D0146800202BE058
:101BE0004FF0010C0CFA00F3B1F800C00CEA030648
:101BF0009E4220D183004FF00F0C0CFA03F7BC4338
:101C000005FA03FC4CEA040491F803C0BCF1280F68
:101C100006D14FF0010C0CFA00FCC2F814C00AE027
:101C200091F803C0BCF1480F05D14FF0010C0CFA3C
:101C300000FCC2F810C0401C0828D1D31460B1F8D1
:101C400000C0BCF1FF0F34DD546800202EE000F12D
:101C5000080C4FF0010808FA0CF3B1F800C00CEAC8
:101C600003069E4221D183004FF00F0C0CFA03F7BC
:101C7000BC4305FA03FC4CEA040491F803C0BCF130
:101C8000280F05D100F1080C08FA0CF8C2F81480EE
:101C900091F803C0BCF1480F07D100F1080C4FF0D8
:101CA000010808FA0CF8C2F81080401C0828CED3AE
:101CB0005460BDE8F0814FF6FF7101800221817010
:101CC0000421C17070470246002093680B400BB19D
:101CD000012000E0002070470146886880B270470C
:101CE00002460020D3680B400BB1012000E0002029
:101CF00070470146C86880B2704701617047416112
:101D000070470AB1016100E041617047C1607047EE
:101D10004FF480320A438261816182618269826903
:101D2000704702460020434B18684FF680731840F6
:101D300040EA021008433F4B186070473E49C861B3
:101D40007047F0B50A46002300240021002500F06A
:101D50000046B6F1004F02D1364EF16901E0354E32
:101D60007168C0F3034583B200F44016B6F5401F16
:101D700008D121F070612F4E766826F070662D4FE5
:101D80007E6012E000F48016B6F5801F06D10326AF
:101D900006FA05F4A14341F0706106E0460D3601F4
:101DA00003FA06F6B14341F0706122B1460D3601E7
:101DB00003FA06F6314300F00046B6F1004F02D1B7
:101DC0001C4EF16101E01B4E7160F0BD30B5002288
:101DD0008B071C0F0F2303FA04F2164B08338C10E9
:101DE00053F824309343134C08348D1044F82530B5
:101DF00023468C1053F824308C07240F00FA04F487
:101E000023430C4C08348D1044F8253030BD0A496A
:101E1000DC3108607047000000080140000C014000
:101E2000001001400014014000180140001C014056
:101E30000020014000000140000020420E490860DF
:101E400070470D49486070470B49886070474AF6F3
:101E5000AA200949086070474CF6CC400649086042
:101E6000704701460020044AD2680A400AB10120A6
:101E700000E000207047000000300040DF480068AC
:101E800040F00100DD49086008464068DC49084030
:101E9000DA49486008460068DA490840D7490860CE
:101EA0000846006820F4802008600846406820F456
:101EB000FE0048604FF41F0088607047CF490968F2
:101EC00021F48031CD4A11601146096821F4802146
:101ED0001160B0F5803F03D0B0F5802F0ED106E041
:101EE000C649096841F48031C44A116007E0C3491A
:101EF000096841F4A021C14A116000E000BF00BFA1
:101F0000704710B501460022002300204A11012A23
:101F100002D1BA4C236806E0022A02D1B74C236AE8
:101F200001E0B64C636A01F01F02012494401C409A
:101F30000CB1012000E0002010BD38B50020009059
:101F40000024002500BF3120FFF7DBFF0546009885
:101F5000401C00900098B0F5A06F01D0002DF2D089
:101F60003120FFF7CEFF08B1012400E00024204615
:101F700038BD01460020A14A106820F0F80040EA70
:101F8000C10010607047A0490860704702460020F9
:101F90009A4B586820F47C1042EA01031843974B8F
:101FA0005860704798490866704701460020934A78
:101FB000506820F003000843506070478F48406825
:101FC00000F00C007047014600208C4A506820F059
:101FD000F00008435060704701460020874A50686F
:101FE00020F4E06008435060704701460020834AB7
:101FF000506820F4605040EAC1005060704729B139
:102000007E4A527A02437D4B5A7204E07B4A527AEE
:1020100082437A4B5A7270477B49D83108607047C7
:1020200001460020754A506820F440400843506043
:1020300070470021714A20321170704A82F82010D6
:10204000012802D004280AD104E001216B4A203281
:10205000117005E00521694A2032117000E000BFCF
:1020600000BF70476949086070476449096A0143C5
:10207000624A11627047654944390860704730B55B
:1020800000210022002400235C4D6D6805F00C0146
:1020900021B1042905D0082923D105E05C4D056054
:1020A00022E05B4D05601FE0544D6D6805F4701231
:1020B000524D6D6805F48034022505EB92421CB93F
:1020C000544D554305600BE04C4D6D6805F40035EB
:1020D0001DB1504D5543056002E04D4D554305601F
:1020E00002E04B4D056000BF00BF444D6D6805F038
:1020F000F0010909484D6B5C0568DD4045603F4DC6
:102100006D6805F4E061090A434D6B5C4568DD408C
:1021100085603A4D6D6805F46051C90A3E4D6B5CAF
:102120004568DD40C560354D6D6805F44041890B5B
:102130003A4D6B5CC568B5FBF3F5056130BD29B15F
:102140002E4A526902432D4B5A6104E02B4A5269D0
:1021500082432A4B5A61704729B1284A9269024347
:10216000264B9A6104E0254A92698243234B9A6187
:10217000704729B1214AD2690243204BDA6104E059
:102180001E4AD26982431D4BDA61704729B11B4A4E
:10219000D2680243194BDA6004E0184AD2688243DD
:1021A000164BDA60704729B1144A12690243134B87
:1021B0001A6104E0114A12698243104B1A61704798
:1021C00012494039086070470F49C86470470B498D
:1021D000C87170470948406A40F0807007494862FA
:1021E000704701460020054A92680A400AB1012062
:1021F00000E00020704701498872704700100240DB
:102200000000FFF8FFFFF6FE000042428004424259
:1022100000127A0000093D005C0000206C000020E4
:1022200010B50446FE48844208D10121C014FFF7CE
:10223000ADFF0021E014FFF7A9FFC4E0B4F1804F27
:1022400008D101210846FFF7AEFF00210120FFF76A
:10225000AAFFB8E0F348844208D101210220FFF729
:10226000A2FF00210220FFF79EFFACE0EE4884426F
:1022700008D101210420FFF796FF00210420FFF779
:1022800092FFA0E0E948844208D101210820FFF72D
:102290008AFF00210820FFF786FF94E0E44884428B
:1022A00008D101211020FFF77EFF00211020FFF749
:1022B0007AFF88E0DF48844208D101212020FFF71F
:1022C00072FF00212020FFF76EFF7CE0DA48844295
:1022D00008D101214014FFF759FF00216014FFF7D6
:1022E00055FF70E0D548844209D10121C804FFF7A9
:1022F0004DFF00214FF40020FFF748FF63E0D04876
:10230000844209D101210805FFF740FF00214FF465
:102310008010FFF73BFF56E0CA48844209D10121F3
:102320004805FFF733FF00214FF40010FFF72EFFA1
:1023300049E0C548844208D101214020FFF733FF1E
:1023400000214020FFF72FFF3DE0C048844208D124
:1023500001218020FFF727FF00218020FFF723FFC6
:1023600031E0BB48844208D101218015FFF71BFFF3
:102370000021A015FFF717FF25E0B648844209D1D8
:1023800001210804FFF702FF00214FF48030FFF71E
:10239000FDFE18E0B048844209D101214804FFF74E
:1023A000F5FE00214FF40030FFF7F0FE0BE0AB48E4
:1023B000844208D101218804FFF7E8FE00214FF490
:1023C0008020FFF7E3FE10BD00220288944B984264
:1023D0000ED0994B98420BD0B0F1804F08D0914B62
:1023E000984205D0904B984202D0904B984204D12D
:1023F0004FF68F731A404B881A438D4B984207D083
:102400008C4B984204D04FF6FF431A40CB881A43B6
:1024100002808B8883850B880385814B98420BD083
:10242000854B984208D08B4B984205D08A4B9842F6
:1024300002D08A4B984201D10B7A03860123838212
:10244000704770B5002400220023058C4FF6FE76FD
:1024500035400584028C8388048B4FF68F752C40A1
:10246000B51E2C400D882C43751E2A400D892A4329
:102470004D882A436A4DA8420BD06F4DA84208D020
:10248000744DA84205D0744DA84202D0734DA842A5
:1024900013D14FF6F7752A404D892A434FF6FB7545
:1024A0002A408D882A434FF6FF652B404FF6FF5593
:1024B0002B408D892B43CD892B4383800483CD888A
:1024C0008586028470BD70B5002400220023058C2F
:1024D0004FF6EF7635400584028C8388048B48F6EE
:1024E000FF752C404FF6FF452C400D884FF6FF76C8
:1024F00006EA05252C434FF6DF752A400D8906EACA
:1025000005152A434D8806EA05152A43444DA8427D
:1025100002D0494DA8421DD14FF67F752A404D8902
:102520004FF6FF7606EA05152A434FF6BF752A4097
:102530008D8806EA05152A434FF6FF352B404FF2EA
:10254000FF752B408D8906EA85052B43CD8906EA68
:1025500085052B4383800483CD880587028470BD65
:1025600070B5002400220023058C4FF6FF6635402D
:102570000584028C8388848B4FF68F752C404FF630
:10258000FC752C400D882C434FF6FF552A400D89D1
:102590004FF6FF7606EA05252A434D8806EA05250B
:1025A0002A431F4DA84202D0234DA8421DD14FF20D
:1025B000FF752A404D894FF6FF7606EA05252A4326
:1025C0004FF6FF352A408D8806EA05252A434EF648
:1025D000FF752B404DF6FF752B408D8906EA0515DA
:1025E0002B43CD8906EA05152B4383808483CD8850
:1025F0008587028470BD70B5002200230024058CFD
:102600004EF6FF7635400584038C8488828B48F62D
:10261000FF752A404FF6FF452A400D8820E0000054
:10262000002C01400004004000080040000C004065
:10263000001000400014004000340140004C0140F4
:10264000005001400054014000180040001C0040B0
:10265000002000400040014000440140004801408B
:102660004FF6FF7606EA05252A434DF6FF752B4007
:102670000D8906EA05352B434D8806EA05352B43BF
:10268000FA4DA84202D0FA4DA84208D14BF6FF7588
:102690002C408D894FF6FF7606EA85152C43848001
:1026A0008283CD88A0F84050038470BD828B4FF2A6
:1026B000FF331A408283828B4FF6FF7303EA0123B4
:1026C0001A4382837047F0B50C461546002200215C
:1026D0000026078C4EF6FF7C07EA0C070784828BE6
:1026E000018C4FF6FF7707EA043640F6FF473A4081
:1026F0004FF6FF7707EA05273A434FF6FF7707EAD9
:1027000003373A43D94FB8420ED0D94FB8420BD015
:10271000B0F1804F08D0D74FB84205D0D64FB8425D
:1027200002D0D64FB84206D14DF6FF77394046F475
:102730008057394305E047F6FF57394044F4805746
:10274000394382830184F0BD828B4FF6F3731A40C4
:102750008283828B0A4382837047F0B50C4615460C
:10276000002200210026078C4FF6FF6C07EA0C07B9
:102770000784828B018C4FF6FF7707EA04264FF619
:102780000C773A404FF6FF7707EA03172F433A4397
:10279000B64FB8420ED0B64FB8420BD0B0F1804F12
:1027A00008D0B44FB84205D0B34FB84202D0B34FAF
:1027B000B84206D14FF6FF57394046F48077394387
:1027C00005E04FF2FF57394044F480773943828364
:1027D0000184F0BD028B4FF2FF331A400283028B5B
:1027E0004FF6FF7303EA01231A4302837047F0B5E3
:1027F0000C461546002200210026078C4FF6EF7C80
:1028000007EA0C070784028B018C4FF6FF7707EA73
:10281000041640F6FF473A404FF6FF7707EA0337C2
:102820003A434FF6FF7707EA05273A438F4FB842FE
:102830000ED08F4FB8420BD0B0F1804F08D08D4FE3
:10284000B84205D08C4FB84202D08C4FB84206D166
:102850004FF6DF77394046F01007394305E04FF671
:102860005F77394044F01007394302830184F0BD9B
:10287000028B4FF6F3731A400283028B0A430283E2
:102880007047F0B50C46154600220021068C4FF625
:10289000FE773E400684028B018C4FF60C76324068
:1028A0007E1C06EA03162E433243704EB0420ED011
:1028B0006F4EB0420BD0B0F1804F08D06D4EB04299
:1028C00005D06D4EB04202D06C4EB04206D14FF6EC
:1028D000FD76314044F00106314305E04FF6F576D0
:1028E000314044F00106314302830184F0BD70B5EC
:1028F00005460C465D4885420ED05D4885420BD0AA
:10290000B5F1804F08D05B48854205D05A488542D2
:1029100002D05A48854200D100E000BF208850B95B
:102920002389A28861882846FFF7ABFFE188284603
:10293000FFF79EFF25E0208804280AD12389A2887A
:1029400061882846FFF753FFE1882846FFF742FFDA
:1029500017E0208808280AD12389A28861882846A0
:10296000FFF7FBFEE1882846FFF7EEFE09E023892A
:10297000A28861882846FFF7A6FEE1882846FFF76F
:1029800095FE70BD2DE9F04105460C460026012755
:10299000608808B9022600E00026A088012801D13D
:1029A000022700E001272088A0B92389A288618836
:1029B0002846FFF766FFE1882846FFF759FF23897D
:1029C0003A4631462846FFF712FFE1882846FFF7CE
:1029D00001FF13E02389A28861882846FFF707FFDB
:1029E000E1882846FFF7F6FE23893A463146284615
:1029F000FFF747FFE1882846FFF73AFFBDE8F0817F
:102A00000A884B881A438B881A43CB881A430B8950
:102A10001A434B891A438B891A43A0F84420704704
:102A20004FF6FF71818000210180C18041800172D9
:102A300070470021018041808180C18001814181F6
:102A40008181C18170470021018041800121818005
:102A50000021C18001817047002101804180818077
:102A6000C18001814181818170470000002C0140BB
:102A7000003401400004004000080040000C004009
:102A800021B1028842F00102028004E002884FF680
:102A9000FE731A400280704731B1B0F8442042F40E
:102AA0000042A0F8442005E0B0F84420C2F30E0232
:102AB000A0F8442070471AB183890B43838102E058
:102AC00083898B43838170478182704741EA020387
:102AD000A0F8483070471AB183890B43838102E024
:102AE00083898B438381704701894FF6F8721140C7
:102AF000018170470A46002101894FF68F73194002
:102B000011430181704730B504460D4629462046E1
:102B1000FFF7F0FF208940F00700208130BD2DE94C
:102B2000F04104460D4616461F46602D06D13B4631
:102B3000012231462046FFF75AFE05E03B460122BE
:102B400031462046FFF79DFE29462046FFF7D2FF7B
:102B5000208940F007002081BDE8F08130B50C46A7
:102B600000210189C9B24FF6FF7505EA0325154317
:102B700025432943018130BD2DE9F04105460E462C
:102B800017469846002443463A4631462846FFF702
:102B9000E5FF2C894FF6F870044044F007044FF627
:102BA0008F70044044F070042C81BDE8F081F0B5D2
:102BB00004460D4616461F463B46324629462046E9
:102BC000FFF7CCFF208940F480402081F0BD0185D3
:102BD000828270470A46002101884FF68F731940A0
:102BE000114301807047F0B50C4615461E46002182
:102BF000002200230189028B038C4FF6F8773940BD
:102C000021434FF6FC473A4040F201173A434FF652
:102C1000DD773B404FF6FF7707EA06172F433B432C
:102C2000018102830384F0BD0A460021018B4FF627
:102C30008F7319401143018370470A460021018BAD
:102C400048F6FF7319404FF6FF7303EA0223194356
:102C5000018370470A460021818B4FF68F7319401C
:102C60001143818370470A460021818B48F6FF7328
:102C700019404FF6FF7303EA02231943818370471B
:102C800021B1028842F08002028004E002884FF6FF
:102C90007F731A400280704721B1828842F004029B
:102CA000828004E082884FF6FB731A40828070476E
:102CB00021B1828842F00802828004E082884FF6C7
:102CC000F7731A408280704721B1828842F0010276
:102CD000828004E082884FF6FE731A40828070473B
:102CE0000A460021018B4FF6F77319401143018307
:102CF00070470A460021018B4FF2FF7319404FF6CF
:102D0000FF7303EA02231943018370470A46002137
:102D1000818B4FF6F77319401143818370470A4640
:102D20000021818B4FF2FF7319404FF6FF7303EAC6
:102D300002231943818370470A460021018B4FF615
:102D4000FB7319401143018370470A460021018B30
:102D50004FF6FF3319404FF6FF7303EA022319437E
:102D6000018370470A460021818B4FF6FB7319409F
:102D70001143818370470A460021818B4FF6FF3350
:102D800019404FF6FF7303EA02231943818370470A
:102D90000A460021018B4FF67F73194011430183CE
:102DA00070470A460021018BC1F30E014FF6FF73F5
:102DB00003EA02231943018370470A460021818BED
:102DC0004FF67F7319401143818370470A460021F3
:102DD000818BC1F30E014FF6FF7303EA02231943FF
:102DE000818370470A460021018C4FF6FD7319401C
:102DF0001143018470470A460021018C4FF6F77396
:102E000019401143018470470A460021018C4FF696
:102E1000DF7319404FF6FF7303EA0213194301846D
:102E200070470A460021018C4FF67F7319404FF618
:102E3000FF7303EA02131943018470470A46002115
:102E4000018C4FF6FF5319404FF6FF7303EA02233C
:102E50001943018470470A460021018C4FF2FF7329
:102E600019404FF6FF7303EA0223194301847047A8
:102E70000A460021018C4DF6FF7319404FF6FF738F
:102E800003EA023319430184704730B5002301245B
:102E90008C40A3B2048C9C430484048C02FA01F598
:102EA000ADB22C43048430BD30B5002304248C40E3
:102EB000A3B2048C9C430484048C02FA01F5ADB2E5
:102EC0002C43048430BD70B503460020002418460E
:102ED000183001258D40ACB21D8CA5431D8409B16D
:102EE000082909D100EB6100056825F0700505602F
:102EF0000568154305600EE00D1FC5F34E05284417
:102F0000056825F4E045056005684FF6FF7606EA9A
:102F100002263543056070BD21B1028842F00202ED
:102F2000028004E002884FF6FD731A400280704769
:102F300021B1028842F00402028004E002884FF6C8
:102F4000FB731A400280704721B1828842F08002F0
:102F5000828004E082884FF67F731A408280704737
:102F600002884FF6F7731A40028002880A430280F3
:102F7000704782884FF68F731A40828082880A4396
:102F80008280704702894FF6F8731A4002810289E5
:102F90000A430281704702894FF67F731A4002810B
:102FA00002890A4302817047818470478185704796
:102FB000818670470187704781877047A0F840106D
:102FC000704702884FF6FF431A40028002880A4386
:102FD000028070470146888E70470146088F70470F
:102FE0000146888F70470146B1F84000704701469E
:102FF000888C70470146088D704702460020138A6E
:103000000B400BB1012000E000207047CA43028250
:10301000704730B50246002000230024158A05EAD7
:103020000103958905EA010413B10CB1012000E008
:10303000002030BDCA4302827047000010B504462C
:10304000FB48844209D101218803FFF79FF8002142
:103050004FF48040FFF79AF832E0F648844209D1F5
:1030600001214804FFF79FF800214FF40030FFF7DB
:103070009AF825E0F048844209D101218804FFF73D
:1030800092F800214FF48020FFF78DF818E0EB480C
:10309000844209D10121C804FFF785F800214FF4CB
:1030A0000020FFF780F80BE0E548844208D10121B9
:1030B0000805FFF778F800214FF48010FFF773F848
:1030C00010BD2DE9F04786B005460E460024A24605
:1030D00000BFA1460027B08900B100BF2F462C8A4F
:1030E0004CF6FF700440F08804432C82AC894EF605
:1030F000F3100440B08831890843718908430443C0
:10310000AC81AC8A4FF6FF400440B0890443AC82E6
:1031100001A8FEF7B4FFC648874202D1DDF810A02F
:1031200001E0DDF80CA0A88900F4004040B10AEBF2
:10313000CA0000EB0A1031684900B0FBF1F807E063
:103140000AEBCA0000EB0A1031688900B0FBF1F805
:103150006420B8FBF0F004012009642101FB108910
:10316000A88900F4004040B1322000EBC900B0FB58
:10317000F1F000F00700044308E0322000EB0910F2
:103180006421B0FBF1F000F00F0004432C8106B085
:10319000BDE8F0874FF41651016000218180C180A5
:1031A00001810C21418100218181704710B50246C7
:1031B0000020108A4FF2FF0318400B884C882343ED
:1031C0008C882343CC8823431843108210BD0021F0
:1031D000018041808180C180704721B1828942F4A1
:1031E0000052828104E082894DF6FF731A40828189
:1031F0007047F0B50346002400260025002040F665
:103200006A17B94200D100BF1846C1F3421401F059
:103210001F06012707FA06F5012C01D10C3004E046
:10322000022C01D1103000E014301AB107682F438E
:10323000076002E00768AF430760F0BD1AB1838AF8
:103240000B43838202E0838A8B4383827047028A26
:103250004FF6F0731A400282028A0A4302827047D4
:1032600082894FF2FF731A40828182890A438281E8
:10327000704721B1828942F00202828104E0828992
:103280004FF6FD731A4082817047028A4FF6DF7352
:103290001A400282028A0A430282704721B1028ADE
:1032A00042F48042028204E0028A4BF6FF731A4025
:1032B00002827047C1F30802828070470146888805
:1032C000C0F308007047818941F001018181704796
:1032D000028BD2B20283028B42EA01220283704740
:1032E000028B02F47F420283028B0A4302837047FF
:1032F00021B1828A42F02002828204E0828A4FF663
:10330000DF731A408282704721B1828A42F0100234
:10331000828204E0828A4FF6EF731A4082827047FD
:1033200021B1828A42F00802828204E0828A4FF64A
:10333000F7731A408282704721B1828942F40042B9
:10334000828103E08289C2F30E028281704721B13B
:10335000828A42F40062828204E0828A4FF2FF7322
:103360001A4082827047828A4FF6FB731A4082822B
:10337000828A0A438282704721B1828A42F0020225
:10338000828204E0828A4FF6FD731A40828270477F
:1033900002460020B1F5007F00D100BF13880B402A
:1033A0000BB1012000E00020704701F40072B2F57B
:1033B000007F00D100BFCA430280704770B502464B
:1033C000002400230025002040F66A16B14200D1F7
:1033D00000BFC1F3421501F01F03012606FA03F3F3
:1033E000012D02D19689334006E0022D02D1168AC2
:1033F000334001E0968A33400C12012606FA04F4A9
:103400001688344013B10CB1012000E0002070BDDB
:1034100010B50022002340F66A14A14200D100BF7B
:103420000A1201249440A3B2DC43048010BD0000C2
:10343000003801400044004000480040004C00407B
:103440000050004010B50121C802FEF7ACFE00217B
:103450004FF40060FEF7A7FE10BD0021194A126864
:1034600022F4C0710143174A1160704708B500216A
:1034700000911449096821F07F01009100F07F015B
:10348000009A114300910F4A0099116008BD012074
:103490000D490860704700F07F010A4A121F116051
:1034A000704740F08001074A121F116070470548BD
:1034B000001D0068C0B2704700200249091D086065
:1034C00070470000042C0040A480054270477047FC
:1034D0007047754600F02CF8AE4605006946534625
:1034E00020F00700854618B020B5FDF7C3FFBDE802
:1034F00020404FF000064FF000074FF000084FF05B
:10350000000B21F00701AC46ACE8C009ACE8C009EB
:10351000ACE8C009ACE8C0098D46704710B5044658
:10352000AFF300802046BDE81040FCF726BE000047
:10353000004870477000002001491820ABBEFEE72C
:10354000260002007047000010B591EA030F48BF43
:1035500083F0004300F18683841A71EB030C05D2DB
:10356000121943EB0C03001B61EB0C01DFF824E1A3
:103570004FEA1154A4EB135C1EEA430F18BF9EEAF6
:10358000445F73D023EA0E03DCF1200E21EA0451DC
:1035900043F4801332D322FA0CFE10EB0E0023FA10
:1035A0000CFE41EB0E01CCF1200E03FA0EFE10EBE7
:1035B0000E0051F10001B1F5801FCCF1200E32D286
:1035C00001EB045112FA0EF2BDE8104058BF7047EB
:1035D000401C38BF5FEA420218BF7047002814BF82
:1035E00020F0010041F100014FEA410313F5001FF3
:1035F00038BF7047A1F1C04100F026BB012A43EB60
:103600000302ACF1200CDCF11F0E32BF4FF0000EB4
:1036100023FA0CF310EB030041EB0451B4EB115F00
:10362000D0D0A1EB045101F5801149085FEA3000C8
:1036300001EB04510ED350F1000038BF12FA0EFE18
:1036400008D1BDE81040C9E7401C38BF5FEA42021C
:10365000CAD1C3E7BDE810404FEA410313F5001F8C
:1036600038BF7047A1F1C04100F0EEBA9EEA445F56
:1036700008D011EA5E0FBDE8104004BF01F0004120
:1036800000207047BDE8104070B500F08FFA00BF11
:1036900064FBBE3E0000E0FF2DE9C04130B4DFF81E
:1036A000A0C23CEA111418BF3CEA131400F0EC80ED
:1036B00081EA03051CEA111444EAD57418BF1CEA18
:1036C000131500F0C780A4EB05044FF0004545EA50
:1036D000C12145EAC32341EA505143EA525304F160
:1036E0007F74994204F500344FEAC0204FEAC222A9
:1036F00008BF904200F09C804FEA13650FF240161D
:10370000765D4FEA134506FB05F7C7F1807706FBA8
:1037100007F74FEAD737A7FB03687642C8F580382A
:10372000A7FB06CE38BFA8F1010807FB08E64FF05B
:10373000000EA6FB028CE6FB03CEDCF1000CCEF102
:10374000004E38BFAEF1010EA6FB0C584FF000073B
:103750004FF00005E6FB0E87A1FB08C6A0FB07CED5
:1037600016EB0E0645F10005E1FB076515F1E04E8D
:103770007EBFA4F580345FEA46066D4116F18007EE
:1037800045F100054FEA17274FEA066647EA056745
:10379000A6F1DE46B6F1805F4FEA15251FD93846FF
:1037A00024F0010C05EBC471BCF1FE6F01EB0C11B0
:1037B00002D8F0BCBDE8008124425CBF01F5801E48
:1037C0009EEAC47F02D4F0BCBDE80081244238D414
:1037D000F0BCA1F1C041BDE8004100F035BA4FEAAC
:1037E000D22242EA43524FEAD323A7FB02864FEA92
:1037F000D02040EA415007FB03661EEA0E0F4FEA55
:10380000D12105FB026658BFA6EB0056B6EB005669
:103810004FEA520E4EEAC37E18EB0E0E56EB530ED5
:10382000BDD518EB02085E417F1C55F10005B6E7D7
:103830004FF480154FF000074FF000064FF00008DE
:10384000ADE7F0BC4FF0000001F1C04101F00041D4
:10385000BDE8008111EA0C1F0CEA131500D00CE042
:1038600013EA0C1F00F025804FF00000F0BC81EA45
:10387000030101F00041BDE80081F0BCBDE800415A
:1038800081EA030100F0E0B9F0BCBDE8004170B589
:1038900000F08CF9097EFC3E00F007B881EA0301D4
:1038A0004FF0000001F00041704781EA030100F091
:1038B000CBB9F0BCBDE800414FF000002149704792
:1038C000FFFDFBF9F7F5F4F2F0EEEDEBE9E8E6E4E5
:1038D000E3E1E0DEDDDBDAD8D7D5D4D3D1D0CFCD6C
:1038E000CCCBCAC8C7C6C5C4C2C1C0BFBEBDBCBBA5
:1038F000BAB9B8B7B6B5B4B3B2B1B0AFAEADACABA0
:10390000AAA9A8A8A7A6A5A4A3A3A2A1A09F9F9E79
:103910009D9C9C9B9A99999897979695959493932B
:10392000929191908F8F8E8E8D8C8C8B8B8A8989C2
:103930008888878786858584848383828281818045
:103940000000FF070000F87F4FEA41034FEA53539E
:10395000A3F58063D3F11E03C8BFD3F1210C0CDDA6
:103960004FF0004242EAC12242EA505232FA03FCCE
:103970008CEAE17CACEBE1707047102BC4BF0020F7
:10398000704703F5787CBCF1FF3F04D06FF0004234
:1039900082EA2100704770B500F008F9499224804E
:1039A00000207047F2E700004FEA1153A3F580634F
:1039B000D3F11E03A8BFD3F1200C08DB4FF0004267
:1039C00042EAC12252EA505232FA03F070470942E9
:1039D0000BD4102BC4BF0020704703F5787CBCF1DA
:1039E000FF3F05D04FF0FF3070474FF000007047A9
:1039F00070B500F0DBF800BF4992248000207047CA
:103A0000F0E710F0004248BF4042B0FA80F310FAED
:103A100003F10AD0C3F11D0303F580634FEA41505F
:103A200002EB035202EBD12170474FF000007047C8
:103A3000B0FA80F310FA03F10AD0C3F11D0303F5C5
:103A400080634FEA41504FEA035202EBD1217047A5
:103A50004FF0000070470000DFF848C170B51CEA65
:103A6000111E1EBF1CEA13159EEA0C0F95EA0C0FDF
:103A700000F06F8081EA030423EA4C134EEAD47EFF
:103A800021EA4C1141F4801143F48013AE44A1FBB0
:103A9000024CA0FB0365AEF17F7E361955EB0C0599
:103AA000A1FB034C4CF10003A0FB021C16EB0C061F
:103AB000654153F10003094218BF46F0010613F4B3
:103AC000007F0BD14FEA03314FEA0530340341EA5E
:103AD000155140EA16506FF003020AE04FEAC32185
:103AE0004FEAC520F40241EA555140EA56506FF0C2
:103AF000020202EB2E4201EB025585EACE710AD09A
:103B00005FEA440C18BF24F0004450F1000041F17A
:103B1000000120EAD47040F2FE7C624500D270BD04
:103B2000A84214BF4FF080444FF04044002E08BF1D
:103B30000024BEF1806FA8BFA1F1C041BDE8704074
:103B400080F282804FF0000001F1C04101F000419D
:103B500070479EEA0C0F0CEA131518BF95EA0C0F7C
:103B600006D04FF0000081EA030E0EF0004170BD58
:103B700000F01CF88900013E00F007B800F009B819
:103B80004FEA430C5FEA5C5C08D081EA030100F075
:103B90005BB84FEA410C5FEA5C5CF6D14FF0000085
:103BA000014970470000FF070000F87F0EF1020E88
:103BB0002EF0030E5EF8046B364205D4012A43EB67
:103BC000030515F5001F12D8012841EB010C1CF567
:103BD000001F0CD80ED14FEAD17C15F5001F0CEB5D
:103BE0004C0C0CF1020C08BF4CEBD37C04E04FF002
:103BF000080C01E04FEAD37C0CEB4C0526FA05F6E5
:103C000006F00706B6F1040C06D20EEB860CBDE8F2
:103C100070404CF0010C6047DFE80CF0090B020229
:103C20004FF000414FF00000A1F5002170BD194692
:103C30001046012851EB010418BFD4F5001484BFCD
:103C4000002001F0004170BD0808A0F500114FEA06
:103C50003101704710B591EA030F48BF83F000436C
:103C60003FF57AAC841A71EB030C07D212198CF071
:103C7000004C43EB0C03001B61EB0C01DFF8A4E1EB
:103C80004FEA1154A4EB135C1EEA430F18BF9EEADF
:103C9000445F00F0B08023EA6E03524221EA0451EF
:103CA000C3EB6E0338BF5B1EDCF1200E25D322FA76
:103CB0000CFE10EB0E0043FA0CFE41EB0E01CCF1B2
:103CC000200E03FA0EFE10EB0E0051F10001CCF1B4
:103CD000200E29D412FA0EF201EB0451BDE8104077
:103CE00058BF7047401C1CBFB2F1004F70470028FE
:103CF0000CBF491C20F00100704712EB020E43EB91
:103D0000030218BF4FF0010E4EEA4202ACF1200C44
:103D1000DCF11E0E54D943FA0CFE10EB0E0051F1EB
:103D2000FF31CCF11E0ED5D50EF1010E12FA0EFEAA
:103D3000404141EB010101EB445C5FEA5C5C10D95E
:103D400010EBDE7001EB045138BFBEF1004FBDE84F
:103D5000104018BF704700280CBF491C20F001001C
:103D6000704730D24FEAD42C11F5001124F40064CE
:103D70001BD0B1FA81F20B3AA41AA41ED2F120038F
:103D8000914030FA03F31943904001EBCC71002CC1
:103D900001EB0451BDE81040A8BF704701F1C041DC
:103DA0004FF0000001F000417047B0FA80F310FAC4
:103DB00003F100D110BDE41A173C4805C90AE4E735
:103DC00001EB045110BD491001EB0451BDE8104056
:103DD0004FEA300002E04FF0000170474A0008BF90
:103DE0000042F8D0B2F5001F28BF704701F0004133
:103DF0004FF0000070479EEA445F07D011EA5E0F63
:103E0000BDE8104004BF002100207047BDE810400D
:103E100070B5FFF7CBFE00BF40DFF63E83F00041F8
:103E2000104670470000E0FF90EA010F48BF81F0A4
:103E3000004100F17A81421A3CBF801A89184FEA8A
:103E4000D0524FF07F4C1CEA410FA2EBD15318BF68
:103E50009CEA026F00F03B804FF0004C4CEA0020DF
:103E60004CEA012121FA03FC10EB0C0C1ED202F1EA
:103E7000FF325FEA1C2040EBC25038BF70471CF095
:103E80007F0F4FEA400C18BFBCF17F4F38BF70471F
:103E9000C3F12003994008BF20F00100BCF17F4F1F
:103EA00038BF7047A0F1C04000F033B94FEA3C0082
:103EB000000A40EBC25028BF1CF0FF0F4FEA400C35
:103EC000E6D018BFBCF17F4F38BF7047EAE79CEAE5
:103ED000026F05D010EA5C0F08BF00F00040704789
:103EE00010B500F0D0F800BF64FBBE3EC10DD1F1AB
:103EF0009E0206DB4FEA002343F0004323FA02F060
:103F00007047004207D54FEA4001B1F1FE4F02D29F
:103F10004FF00000704710B500F0B5F849922480CA
:103F2000002070476FEA20007047000010F0004149
:103F300048BF4042B0FA80F310FA03F2C3F19D0388
:103F40000BD051EAC35101EB1220530638BF704722
:103F500000F1010008BF20F001007047B0FA80F3C3
:103F600010FA03F2C3F19D030AD0D90501EB122028
:103F7000530638BF704700F1010008BF20F0010070
:103F8000704700004FF47F0C1CEAD0121EBF1CEAE1
:103F9000D11392EA0C0F93EA0C0F00F0478090EADD
:103FA000010F48BF42F480724FF0004C4CEA0020F1
:103FB0004CEA012102EB0302A0FB0113A2F500026F
:103FC000002918BF43F001035B0028BF4FEA330309
:103FD00042EB22425FEA132C4CEBC2502EBFBCEBEB
:103FE000436FB2F57C0F70474FEA036CBCF1004F92
:103FF00008BF20F00100B2F57C0F38BF70470BD529
:1040000082F0FF0212F5803FC8BF704700F1C04048
:10401000D8BF00F00040704700F5000C5FEA4C0C80
:1040200048BF7047B0F1C04000F073B890EA010F8C
:104030000CEAD11348BF42F48072624538BF634531
:1040400004D280EA010000F00040704710B500F093
:104050001AF800BF8900013E00F007B800F009B867
:104060005FEA410C5FEA1C6C08D080EA010000F0B6
:1040700050B85FEA400C5FEA1C6CF6D14FF000408C
:10408000A0F5800070470EF1020E2EF0030E5EF8D0
:10409000044B244204D44FEA4102B2F17F4F11D8BD
:1040A0004FEA4003B3F17F4F0CD80ED14FEAD07CDA
:1040B000B2F17F4F0CEB4C0C0CF1020C08BF4CEB37
:1040C000D17C04E04FF0080C01E04FEAD17C0CEB0E
:1040D0004C0324FA03F404F00704B4F1040C06D2F0
:1040E0000EEB840CBDE810404CF0010C6047DFE89B
:1040F0000CF0070802024FF00040A0F5800010BD50
:104100000846420018BFD2F1807288BF00F000401C
:1041100010BDFF2141EAD050C005704790EA010F61
:1041200048BF81F000413FF586AE421A04D882F0C4
:104130000042A0EB020011444FEAD0524FF07F4CF6
:104140001CEA410FA2EBD15318BF9CEA026F4AD080
:104150004FF0004C4CEA00204CEA012121FA03FC0C
:10416000B0EB0C0C0FD412F0FE0F36D05FEA4C000F
:104170001DD5001240EBC25038BF70471CF03F0FF6
:1041800018BF70470BE0A2F101025FEA1C2040EB70
:10419000C25038BF70471CF07F0F18BF7047C3F183
:1041A0002003994014BF401E20F001007047800892
:1041B0004FEA122308BF7047B0FA80FCA2EB0C0252
:1041C000CCF1280C60FA0CF093EA122F04BF00EB3C
:1041D000C25070474FEAC3707047130A5FEADC10A1
:1041E00008BF7047F6E79CEA026F04D010EA5C0F44
:1041F00008BF0020704710B5FFF745FF40DFF63ECF
:1042000081F00040704700002842000800000020B4
:10421000700000002801000898420008700000208B
:1042200060060000440100088E0D00000000000040
:1042300000000000000000000000000000A24A048E
:104240000000000000000000010203040607080946
:104250000000A04117B751390000404000000000A5
:10426000000000000000000000000000000000004E
:10427000000000000000000000000000000000003E
:10428000000000000000000001020304010203041A
:084290000607080902040608F4
:04000005080000ED02
:00000001FF
